:0A0000008031022888018731302F7B
:100E6000F901FA012000342FB9278731F701F80181
:100E700022000E148E103230F000F101A0278731CD
:100E800022000E108E143230F000F101A0278731BD
:100E9000F70A0319F80A00307802053003197702BF
:100EA000031C382F20009701960122000C1220000D
:100EB000E8301814F0000330F100A027873120003B
:100EC00018101708F900FA01F6001608F90076085C
:100ED000FA0001307A02E03003197902031C7C2FFA
:100EE00002307A0209300319790203187C2F22009C
:100EF0000E148E108E169C2F12307A02C0300319F9
:100F00007902031C982F13307A02ED30031979020D
:100F10000318982F22000E1003108E1C0314031CBC
:100F2000942F22008E14962F22008E108E129C2F4A
:100F300022000E108E128E14200097019601572F5A
:100F4000F401F501F401F50171087502031DAA2FE2
:100F500070087402031808000630F3003030F20005
:100F6000F20BB02FF30BB02F6400F40A0319F50A4B
:100F7000A42F7A3021009900883095009701200035
:100F80008C018E0122008C018E0123008C01270030
:100F90008C01383021008C008E0123008E0120004E
:100FA0009E01220091019201930194019701270073
:100FB0009C01203021009E006030220098009901A1
:100FC000250093019101960184302000980044305F
:100FD00099006E309B0001309C00FA30280096008A
:100FE0004A309700FA309D0002309E008B012000AD
:100FF0009101920193012100910192019301080056
:020000040001F9
:04000E00ACC9FFD8A2
:00000001FF
